:1000000010C01DC01CC01BC01AC019C018C017C02A
:1000100016C015C014C013C012C011C010C00FC04C
:100020000EC011241FBECFEDCDBF10E0A0E6B0E0A2
:1000300001C01D92A236B107E1F7A3D0C4C0E0CF42
:100040008AB380778ABB8BB380778BBB87B3887F7B
:1000500087BB88B3887F88BB81E0809361008BB3C6
:100060008A7F8BBB08958AB38F688ABB87B387600A
:1000700087BB109261008BB385608BBB08952BB357
:10008000382F3F782077322B3BBB28B390E0807726
:10009000907034E0959587953A95E1F7287F282B65
:1000A00028BB089589B326B330E02770307044E050
:1000B000220F331F4A95E1F78F78822B0895DC9A3F
:1000C000DE9AD49AD69888E28DB980EF8EB90895D9
:1000D0008AB385608ABBB4DFF2DF0895779B11C0D5
:1000E000D698CC99FECF88E38DB980EF8EB98EB1CA
:1000F0008076E9F3759B07C0D69888E28DB980E7D2
:100100008EB980E008958FB18695823451F48FB115
:100110008170809360001FB8D69A8EE78EB981E017
:100120000895D69888E28DB980E78EB980E0089569
:10013000769BFECF8FB9D69A80E78EB9769BFECF9D
:10014000D6981FB88EE78EB9769BFECFD69888E2F8
:100150008DB980E78EB90895769BFECFD69880E75B
:100160008EB9769BFECF9FB11FB8D69A8EE78EB917
:10017000769BFECFD69888E28DB980E78EB9892F1D
:100180000895A6DFABDF8823E9F380916000882320
:1001900099F080916100882309F452DF89B326B376
:1001A00030E02770307054E0220F331F5A95E1F78A
:1001B0008F78822BBDDFE6CF80916100811153DF04
:0A01C000CBDF5DDFDFCFF894FFCF47
:00000001FF
